{
  "_format": "hh-sol-artifact-1",
  "contractName": "WavePortal",
  "sourceName": "contracts/WavePortal.sol",
  "abi": [
    {
      "inputs": [],
      "stateMutability": "payable",
      "type": "constructor"
    },
    {
      "anonymous": false,
      "inputs": [
        {
          "indexed": true,
          "internalType": "address",
          "name": "from",
          "type": "address"
        },
        {
          "indexed": false,
          "internalType": "uint256",
          "name": "timestamp",
          "type": "uint256"
        },
        {
          "indexed": false,
          "internalType": "string",
          "name": "message",
          "type": "string"
        }
      ],
      "name": "NewWave",
      "type": "event"
    },
    {
      "inputs": [],
      "name": "getAllWavers",
      "outputs": [
        {
          "internalType": "uint256[]",
          "name": "",
          "type": "uint256[]"
        }
      ],
      "stateMutability": "view",
      "type": "function"
    },
    {
      "inputs": [],
      "name": "getAllWaves",
      "outputs": [
        {
          "components": [
            {
              "internalType": "address",
              "name": "waver",
              "type": "address"
            },
            {
              "internalType": "string",
              "name": "message",
              "type": "string"
            },
            {
              "internalType": "uint256",
              "name": "timestamp",
              "type": "uint256"
            }
          ],
          "internalType": "struct WavePortal.Wave[]",
          "name": "",
          "type": "tuple[]"
        }
      ],
      "stateMutability": "view",
      "type": "function"
    },
    {
      "inputs": [],
      "name": "getTotalWaves",
      "outputs": [
        {
          "internalType": "uint256",
          "name": "",
          "type": "uint256"
        }
      ],
      "stateMutability": "view",
      "type": "function"
    },
    {
      "inputs": [
        {
          "internalType": "address",
          "name": "",
          "type": "address"
        }
      ],
      "name": "lastWavedAt",
      "outputs": [
        {
          "internalType": "uint256",
          "name": "",
          "type": "uint256"
        }
      ],
      "stateMutability": "view",
      "type": "function"
    },
    {
      "inputs": [
        {
          "internalType": "string",
          "name": "_message",
          "type": "string"
        }
      ],
      "name": "wave",
      "outputs": [],
      "stateMutability": "nonpayable",
      "type": "function"
    }
  ],
  "bytecode": "0x60806040526200004f6040518060400160405280601581526020017f4920616d206120736d61727420636f6e747261637400000000000000000000008152506200005560201b620007831760201c565b620001e9565b620000f5816040516024016200006c919062000162565b6040516020818303038152906040527f41304fac000000000000000000000000000000000000000000000000000000007bffffffffffffffffffffffffffffffffffffffffffffffffffffffff19166020820180517bffffffffffffffffffffffffffffffffffffffffffffffffffffffff8381831617835250505050620000f860201b60201c565b50565b60008151905060006a636f6e736f6c652e6c6f679050602083016000808483855afa5050505050565b60006200012e8262000186565b6200013a818562000191565b93506200014c818560208601620001a2565b6200015781620001d8565b840191505092915050565b600060208201905081810360008301526200017e818462000121565b905092915050565b600081519050919050565b600082825260208201905092915050565b60005b83811015620001c2578082015181840152602081019050620001a5565b83811115620001d2576000848401525b50505050565b6000601f19601f8301169050919050565b61146d80620001f96000396000f3fe608060405234801561001057600080fd5b50600436106100575760003560e01c8063117c55641461005c578063449d46c01461007a5780639a2cdc0814610096578063a42a4663146100b4578063bd43a908146100e4575b600080fd5b610064610102565b6040516100719190610f02565b60405180910390f35b610094600480360381019061008f9190610c01565b61015a565b005b61009e6105cf565b6040516100ab9190611082565b60405180910390f35b6100ce60048036038101906100c99190610bd8565b61061a565b6040516100db9190611082565b60405180910390f35b6100ec610632565b6040516100f99190610ee0565b60405180910390f35b6060600180548060200260200160405190810160405280929190818152602001828054801561015057602002820191906000526020600020905b81548152602001906001019080831161013c575b5050505050905090565b42610384600360003373ffffffffffffffffffffffffffffffffffffffff1673ffffffffffffffffffffffffffffffffffffffff168152602001908152602001600020546101a891906111cd565b106101e8576040517f08c379a00000000000000000000000000000000000000000000000000000000081526004016101df90611062565b60405180910390fd5b42600360003373ffffffffffffffffffffffffffffffffffffffff1673ffffffffffffffffffffffffffffffffffffffff16815260200190815260200160002081905550600160008082825461023e91906111cd565b9250508190555060013373ffffffffffffffffffffffffffffffffffffffff1690806001815401808255809150506001900390600052602060002001600090919091909150556102c46040518060400160405280601681526020017f257320776176656420772f206d65737361676520257300000000000000000000815250338361081c565b6103036040518060400160405280600f81526020017f476f74206d6573736167653a2025730000000000000000000000000000000000815250826108bb565b600460405180606001604052803373ffffffffffffffffffffffffffffffffffffffff16815260200183815260200142815250908060018154018082558091505060019003906000526020600020906003020160009091909190915060008201518160000160006101000a81548173ffffffffffffffffffffffffffffffffffffffff021916908373ffffffffffffffffffffffffffffffffffffffff16021790555060208201518160010190805190602001906103c2929190610ab8565b506040820151816002015550506000606460025442446103e291906111cd565b6103ec91906111cd565b16905061042e6040518060400160405280601681526020017f52616e646f6d20232067656e6572617465643a2025730000000000000000000081525082610957565b80600281905550603281101561057b5761047d6040518060400160405280600781526020017f257320776f6e2100000000000000000000000000000000000000000000000000815250336109f3565b600066038d7ea4c680009050478111156104cc576040517f08c379a00000000000000000000000000000000000000000000000000000000081526004016104c390611042565b60405180910390fd5b60003373ffffffffffffffffffffffffffffffffffffffff16826040516104f290610ecb565b60006040518083038185875af1925050503d806000811461052f576040519150601f19603f3d011682016040523d82523d6000602084013e610534565b606091505b5050905080610578576040517f08c379a000000000000000000000000000000000000000000000000000000000815260040161056f90611022565b60405180910390fd5b50505b3373ffffffffffffffffffffffffffffffffffffffff167f5f7e16dc676677766a70e9c5628aa6c54ddb8b6e5188e2ae1e1f17f1ffbea71642846040516105c392919061109d565b60405180910390a25050565b60006106126040518060400160405280601681526020017f5765206861766520256420746f74616c20776176657300000000000000000000815250600054610957565b600054905090565b60036020528060005260406000206000915090505481565b60606004805480602002602001604051908101604052809291908181526020016000905b8282101561077a57838290600052602060002090600302016040518060600160405290816000820160009054906101000a900473ffffffffffffffffffffffffffffffffffffffff1673ffffffffffffffffffffffffffffffffffffffff1673ffffffffffffffffffffffffffffffffffffffff1681526020016001820180546106df906112a1565b80601f016020809104026020016040519081016040528092919081815260200182805461070b906112a1565b80156107585780601f1061072d57610100808354040283529160200191610758565b820191906000526020600020905b81548152906001019060200180831161073b57829003601f168201915b5050505050815260200160028201548152505081526020019060010190610656565b50505050905090565b610819816040516024016107979190610f24565b6040516020818303038152906040527f41304fac000000000000000000000000000000000000000000000000000000007bffffffffffffffffffffffffffffffffffffffffffffffffffffffff19166020820180517bffffffffffffffffffffffffffffffffffffffffffffffffffffffff8381831617835250505050610a8f565b50565b6108b683838360405160240161083493929190610f76565b6040516020818303038152906040527fe0e9ad4f000000000000000000000000000000000000000000000000000000007bffffffffffffffffffffffffffffffffffffffffffffffffffffffff19166020820180517bffffffffffffffffffffffffffffffffffffffffffffffffffffffff8381831617835250505050610a8f565b505050565b61095382826040516024016108d1929190610fbb565b6040516020818303038152906040527f4b5c4277000000000000000000000000000000000000000000000000000000007bffffffffffffffffffffffffffffffffffffffffffffffffffffffff19166020820180517bffffffffffffffffffffffffffffffffffffffffffffffffffffffff8381831617835250505050610a8f565b5050565b6109ef828260405160240161096d929190610ff2565b6040516020818303038152906040527f9710a9d0000000000000000000000000000000000000000000000000000000007bffffffffffffffffffffffffffffffffffffffffffffffffffffffff19166020820180517bffffffffffffffffffffffffffffffffffffffffffffffffffffffff8381831617835250505050610a8f565b5050565b610a8b8282604051602401610a09929190610f46565b6040516020818303038152906040527f319af333000000000000000000000000000000000000000000000000000000007bffffffffffffffffffffffffffffffffffffffffffffffffffffffff19166020820180517bffffffffffffffffffffffffffffffffffffffffffffffffffffffff8381831617835250505050610a8f565b5050565b60008151905060006a636f6e736f6c652e6c6f679050602083016000808483855afa5050505050565b828054610ac4906112a1565b90600052602060002090601f016020900481019282610ae65760008555610b2d565b82601f10610aff57805160ff1916838001178555610b2d565b82800160010185558215610b2d579182015b82811115610b2c578251825591602001919060010190610b11565b5b509050610b3a9190610b3e565b5090565b5b80821115610b57576000816000905550600101610b3f565b5090565b6000610b6e610b69846110f2565b6110cd565b905082815260208101848484011115610b8657600080fd5b610b9184828561125f565b509392505050565b600081359050610ba881611420565b92915050565b600082601f830112610bbf57600080fd5b8135610bcf848260208601610b5b565b91505092915050565b600060208284031215610bea57600080fd5b6000610bf884828501610b99565b91505092915050565b600060208284031215610c1357600080fd5b600082013567ffffffffffffffff811115610c2d57600080fd5b610c3984828501610bae565b91505092915050565b6000610c4e8383610e5d565b905092915050565b6000610c628383610ead565b60208301905092915050565b610c7781611223565b82525050565b610c8681611223565b82525050565b6000610c9782611143565b610ca1818561117e565b935083602082028501610cb385611123565b8060005b85811015610cef5784840389528151610cd08582610c42565b9450610cdb83611164565b925060208a01995050600181019050610cb7565b50829750879550505050505092915050565b6000610d0c8261114e565b610d16818561118f565b9350610d2183611133565b8060005b83811015610d52578151610d398882610c56565b9750610d4483611171565b925050600181019050610d25565b5085935050505092915050565b6000610d6a82611159565b610d7481856111ab565b9350610d8481856020860161126e565b610d8d81611391565b840191505092915050565b6000610da382611159565b610dad81856111bc565b9350610dbd81856020860161126e565b610dc681611391565b840191505092915050565b6000610dde6014836111bc565b9150610de9826113a2565b602082019050919050565b6000610e016000836111a0565b9150610e0c826113cb565b600082019050919050565b6000610e246016836111bc565b9150610e2f826113ce565b602082019050919050565b6000610e476008836111bc565b9150610e52826113f7565b602082019050919050565b6000606083016000830151610e756000860182610c6e565b5060208301518482036020860152610e8d8282610d5f565b9150506040830151610ea26040860182610ead565b508091505092915050565b610eb681611255565b82525050565b610ec581611255565b82525050565b6000610ed682610df4565b9150819050919050565b60006020820190508181036000830152610efa8184610c8c565b905092915050565b60006020820190508181036000830152610f1c8184610d01565b905092915050565b60006020820190508181036000830152610f3e8184610d98565b905092915050565b60006040820190508181036000830152610f608185610d98565b9050610f6f6020830184610c7d565b9392505050565b60006060820190508181036000830152610f908186610d98565b9050610f9f6020830185610c7d565b8181036040830152610fb18184610d98565b9050949350505050565b60006040820190508181036000830152610fd58185610d98565b90508181036020830152610fe98184610d98565b90509392505050565b6000604082019050818103600083015261100c8185610d98565b905061101b6020830184610ebc565b9392505050565b6000602082019050818103600083015261103b81610dd1565b9050919050565b6000602082019050818103600083015261105b81610e17565b9050919050565b6000602082019050818103600083015261107b81610e3a565b9050919050565b60006020820190506110976000830184610ebc565b92915050565b60006040820190506110b26000830185610ebc565b81810360208301526110c48184610d98565b90509392505050565b60006110d76110e8565b90506110e382826112d3565b919050565b6000604051905090565b600067ffffffffffffffff82111561110d5761110c611362565b5b61111682611391565b9050602081019050919050565b6000819050602082019050919050565b6000819050602082019050919050565b600081519050919050565b600081519050919050565b600081519050919050565b6000602082019050919050565b6000602082019050919050565b600082825260208201905092915050565b600082825260208201905092915050565b600081905092915050565b600082825260208201905092915050565b600082825260208201905092915050565b60006111d882611255565b91506111e383611255565b9250827fffffffffffffffffffffffffffffffffffffffffffffffffffffffffffffffff0382111561121857611217611304565b5b828201905092915050565b600061122e82611235565b9050919050565b600073ffffffffffffffffffffffffffffffffffffffff82169050919050565b6000819050919050565b82818337600083830152505050565b60005b8381101561128c578082015181840152602081019050611271565b8381111561129b576000848401525b50505050565b600060028204905060018216806112b957607f821691505b602082108114156112cd576112cc611333565b5b50919050565b6112dc82611391565b810181811067ffffffffffffffff821117156112fb576112fa611362565b5b80604052505050565b7f4e487b7100000000000000000000000000000000000000000000000000000000600052601160045260246000fd5b7f4e487b7100000000000000000000000000000000000000000000000000000000600052602260045260246000fd5b7f4e487b7100000000000000000000000000000000000000000000000000000000600052604160045260246000fd5b6000601f19601f8301169050919050565b7f4661696c656420746f2073656e64206d6f6e6579000000000000000000000000600082015250565b50565b7f436f6e747261637420686173206e6f206d6f6e65797300000000000000000000600082015250565b7f576169742031356d000000000000000000000000000000000000000000000000600082015250565b61142981611223565b811461143457600080fd5b5056fea26469706673582212201855accb5f314520e10a294f6bd81188074ebe1ce4fc1cef105ac61e7efebea864736f6c63430008040033",
  "linkReferences": {},
  "deployedLinkReferences": {}
}