{
  "_format": "hh-sol-artifact-1",
  "contractName": "WavePortal",
  "sourceName": "contracts/WavePortal.sol",
  "abi": [
    {
      "inputs": [],
      "stateMutability": "payable",
      "type": "constructor"
    },
    {
      "anonymous": false,
      "inputs": [
        {
          "indexed": true,
          "internalType": "address",
          "name": "from",
          "type": "address"
        },
        {
          "indexed": false,
          "internalType": "uint256",
          "name": "timestamp",
          "type": "uint256"
        },
        {
          "indexed": false,
          "internalType": "string",
          "name": "message",
          "type": "string"
        }
      ],
      "name": "NewWave",
      "type": "event"
    },
    {
      "inputs": [],
      "name": "getAllWavers",
      "outputs": [
        {
          "internalType": "uint256[]",
          "name": "",
          "type": "uint256[]"
        }
      ],
      "stateMutability": "view",
      "type": "function"
    },
    {
      "inputs": [],
      "name": "getAllWaves",
      "outputs": [
        {
          "components": [
            {
              "internalType": "address",
              "name": "waver",
              "type": "address"
            },
            {
              "internalType": "string",
              "name": "message",
              "type": "string"
            },
            {
              "internalType": "uint256",
              "name": "timestamp",
              "type": "uint256"
            }
          ],
          "internalType": "struct WavePortal.Wave[]",
          "name": "",
          "type": "tuple[]"
        }
      ],
      "stateMutability": "view",
      "type": "function"
    },
    {
      "inputs": [],
      "name": "getTotalWaves",
      "outputs": [
        {
          "internalType": "uint256",
          "name": "",
          "type": "uint256"
        }
      ],
      "stateMutability": "view",
      "type": "function"
    },
    {
      "inputs": [
        {
          "internalType": "address",
          "name": "",
          "type": "address"
        }
      ],
      "name": "lastWavedAt",
      "outputs": [
        {
          "internalType": "uint256",
          "name": "",
          "type": "uint256"
        }
      ],
      "stateMutability": "view",
      "type": "function"
    },
    {
      "inputs": [
        {
          "internalType": "string",
          "name": "_message",
          "type": "string"
        }
      ],
      "name": "wave",
      "outputs": [],
      "stateMutability": "nonpayable",
      "type": "function"
    }
  ],
  "bytecode": "0x60806040526200004f6040518060400160405280601581526020017f4920616d206120736d61727420636f6e747261637400000000000000000000008152506200005560201b620007821760201c565b620001e9565b620000f5816040516024016200006c919062000162565b6040516020818303038152906040527f41304fac000000000000000000000000000000000000000000000000000000007bffffffffffffffffffffffffffffffffffffffffffffffffffffffff19166020820180517bffffffffffffffffffffffffffffffffffffffffffffffffffffffff8381831617835250505050620000f860201b60201c565b50565b60008151905060006a636f6e736f6c652e6c6f679050602083016000808483855afa5050505050565b60006200012e8262000186565b6200013a818562000191565b93506200014c818560208601620001a2565b6200015781620001d8565b840191505092915050565b600060208201905081810360008301526200017e818462000121565b905092915050565b600081519050919050565b600082825260208201905092915050565b60005b83811015620001c2578082015181840152602081019050620001a5565b83811115620001d2576000848401525b50505050565b6000601f19601f8301169050919050565b61149280620001f96000396000f3fe608060405234801561001057600080fd5b50600436106100575760003560e01c8063117c55641461005c578063449d46c01461007a5780639a2cdc0814610096578063a42a4663146100b4578063bd43a908146100e4575b600080fd5b610064610102565b6040516100719190610f01565b60405180910390f35b610094600480360381019061008f9190610c00565b61015a565b005b61009e6105ce565b6040516100ab9190611081565b60405180910390f35b6100ce60048036038101906100c99190610bd7565b610619565b6040516100db9190611081565b60405180910390f35b6100ec610631565b6040516100f99190610edf565b60405180910390f35b6060600180548060200260200160405190810160405280929190818152602001828054801561015057602002820191906000526020600020905b81548152602001906001019080831161013c575b5050505050905090565b42601e600360003373ffffffffffffffffffffffffffffffffffffffff1673ffffffffffffffffffffffffffffffffffffffff168152602001908152602001600020546101a791906111cc565b106101e7576040517f08c379a00000000000000000000000000000000000000000000000000000000081526004016101de90611041565b60405180910390fd5b42600360003373ffffffffffffffffffffffffffffffffffffffff1673ffffffffffffffffffffffffffffffffffffffff16815260200190815260200160002081905550600160008082825461023d91906111cc565b9250508190555060013373ffffffffffffffffffffffffffffffffffffffff1690806001815401808255809150506001900390600052602060002001600090919091909150556102c36040518060400160405280601681526020017f257320776176656420772f206d65737361676520257300000000000000000000815250338361081b565b6103026040518060400160405280600f81526020017f476f74206d6573736167653a2025730000000000000000000000000000000000815250826108ba565b600460405180606001604052803373ffffffffffffffffffffffffffffffffffffffff16815260200183815260200142815250908060018154018082558091505060019003906000526020600020906003020160009091909190915060008201518160000160006101000a81548173ffffffffffffffffffffffffffffffffffffffff021916908373ffffffffffffffffffffffffffffffffffffffff16021790555060208201518160010190805190602001906103c1929190610ab7565b506040820151816002015550506000606460025442446103e191906111cc565b6103eb91906111cc565b16905061042d6040518060400160405280601681526020017f52616e646f6d20232067656e6572617465643a2025730000000000000000000081525082610956565b80600281905550603281101561057a5761047c6040518060400160405280600781526020017f257320776f6e2100000000000000000000000000000000000000000000000000815250336109f2565b600066038d7ea4c680009050478111156104cb576040517f08c379a00000000000000000000000000000000000000000000000000000000081526004016104c290611061565b60405180910390fd5b60003373ffffffffffffffffffffffffffffffffffffffff16826040516104f190610eca565b60006040518083038185875af1925050503d806000811461052e576040519150601f19603f3d011682016040523d82523d6000602084013e610533565b606091505b5050905080610577576040517f08c379a000000000000000000000000000000000000000000000000000000000815260040161056e90611021565b60405180910390fd5b50505b3373ffffffffffffffffffffffffffffffffffffffff167f5f7e16dc676677766a70e9c5628aa6c54ddb8b6e5188e2ae1e1f17f1ffbea71642846040516105c292919061109c565b60405180910390a25050565b60006106116040518060400160405280601681526020017f5765206861766520256420746f74616c20776176657300000000000000000000815250600054610956565b600054905090565b60036020528060005260406000206000915090505481565b60606004805480602002602001604051908101604052809291908181526020016000905b8282101561077957838290600052602060002090600302016040518060600160405290816000820160009054906101000a900473ffffffffffffffffffffffffffffffffffffffff1673ffffffffffffffffffffffffffffffffffffffff1673ffffffffffffffffffffffffffffffffffffffff1681526020016001820180546106de906112a0565b80601f016020809104026020016040519081016040528092919081815260200182805461070a906112a0565b80156107575780601f1061072c57610100808354040283529160200191610757565b820191906000526020600020905b81548152906001019060200180831161073a57829003601f168201915b5050505050815260200160028201548152505081526020019060010190610655565b50505050905090565b610818816040516024016107969190610f23565b6040516020818303038152906040527f41304fac000000000000000000000000000000000000000000000000000000007bffffffffffffffffffffffffffffffffffffffffffffffffffffffff19166020820180517bffffffffffffffffffffffffffffffffffffffffffffffffffffffff8381831617835250505050610a8e565b50565b6108b583838360405160240161083393929190610f75565b6040516020818303038152906040527fe0e9ad4f000000000000000000000000000000000000000000000000000000007bffffffffffffffffffffffffffffffffffffffffffffffffffffffff19166020820180517bffffffffffffffffffffffffffffffffffffffffffffffffffffffff8381831617835250505050610a8e565b505050565b61095282826040516024016108d0929190610fba565b6040516020818303038152906040527f4b5c4277000000000000000000000000000000000000000000000000000000007bffffffffffffffffffffffffffffffffffffffffffffffffffffffff19166020820180517bffffffffffffffffffffffffffffffffffffffffffffffffffffffff8381831617835250505050610a8e565b5050565b6109ee828260405160240161096c929190610ff1565b6040516020818303038152906040527f9710a9d0000000000000000000000000000000000000000000000000000000007bffffffffffffffffffffffffffffffffffffffffffffffffffffffff19166020820180517bffffffffffffffffffffffffffffffffffffffffffffffffffffffff8381831617835250505050610a8e565b5050565b610a8a8282604051602401610a08929190610f45565b6040516020818303038152906040527f319af333000000000000000000000000000000000000000000000000000000007bffffffffffffffffffffffffffffffffffffffffffffffffffffffff19166020820180517bffffffffffffffffffffffffffffffffffffffffffffffffffffffff8381831617835250505050610a8e565b5050565b60008151905060006a636f6e736f6c652e6c6f679050602083016000808483855afa5050505050565b828054610ac3906112a0565b90600052602060002090601f016020900481019282610ae55760008555610b2c565b82601f10610afe57805160ff1916838001178555610b2c565b82800160010185558215610b2c579182015b82811115610b2b578251825591602001919060010190610b10565b5b509050610b399190610b3d565b5090565b5b80821115610b56576000816000905550600101610b3e565b5090565b6000610b6d610b68846110f1565b6110cc565b905082815260208101848484011115610b8557600080fd5b610b9084828561125e565b509392505050565b600081359050610ba781611445565b92915050565b600082601f830112610bbe57600080fd5b8135610bce848260208601610b5a565b91505092915050565b600060208284031215610be957600080fd5b6000610bf784828501610b98565b91505092915050565b600060208284031215610c1257600080fd5b600082013567ffffffffffffffff811115610c2c57600080fd5b610c3884828501610bad565b91505092915050565b6000610c4d8383610e5c565b905092915050565b6000610c618383610eac565b60208301905092915050565b610c7681611222565b82525050565b610c8581611222565b82525050565b6000610c9682611142565b610ca0818561117d565b935083602082028501610cb285611122565b8060005b85811015610cee5784840389528151610ccf8582610c41565b9450610cda83611163565b925060208a01995050600181019050610cb6565b50829750879550505050505092915050565b6000610d0b8261114d565b610d15818561118e565b9350610d2083611132565b8060005b83811015610d51578151610d388882610c55565b9750610d4383611170565b925050600181019050610d24565b5085935050505092915050565b6000610d6982611158565b610d7381856111aa565b9350610d8381856020860161126d565b610d8c81611390565b840191505092915050565b6000610da282611158565b610dac81856111bb565b9350610dbc81856020860161126d565b610dc581611390565b840191505092915050565b6000610ddd6014836111bb565b9150610de8826113a1565b602082019050919050565b6000610e006029836111bb565b9150610e0b826113ca565b604082019050919050565b6000610e2360008361119f565b9150610e2e82611419565b600082019050919050565b6000610e466016836111bb565b9150610e518261141c565b602082019050919050565b6000606083016000830151610e746000860182610c6d565b5060208301518482036020860152610e8c8282610d5e565b9150506040830151610ea16040860182610eac565b508091505092915050565b610eb581611254565b82525050565b610ec481611254565b82525050565b6000610ed582610e16565b9150819050919050565b60006020820190508181036000830152610ef98184610c8b565b905092915050565b60006020820190508181036000830152610f1b8184610d00565b905092915050565b60006020820190508181036000830152610f3d8184610d97565b905092915050565b60006040820190508181036000830152610f5f8185610d97565b9050610f6e6020830184610c7c565b9392505050565b60006060820190508181036000830152610f8f8186610d97565b9050610f9e6020830185610c7c565b8181036040830152610fb08184610d97565b9050949350505050565b60006040820190508181036000830152610fd48185610d97565b90508181036020830152610fe88184610d97565b90509392505050565b6000604082019050818103600083015261100b8185610d97565b905061101a6020830184610ebb565b9392505050565b6000602082019050818103600083015261103a81610dd0565b9050919050565b6000602082019050818103600083015261105a81610df3565b9050919050565b6000602082019050818103600083015261107a81610e39565b9050919050565b60006020820190506110966000830184610ebb565b92915050565b60006040820190506110b16000830185610ebb565b81810360208301526110c38184610d97565b90509392505050565b60006110d66110e7565b90506110e282826112d2565b919050565b6000604051905090565b600067ffffffffffffffff82111561110c5761110b611361565b5b61111582611390565b9050602081019050919050565b6000819050602082019050919050565b6000819050602082019050919050565b600081519050919050565b600081519050919050565b600081519050919050565b6000602082019050919050565b6000602082019050919050565b600082825260208201905092915050565b600082825260208201905092915050565b600081905092915050565b600082825260208201905092915050565b600082825260208201905092915050565b60006111d782611254565b91506111e283611254565b9250827fffffffffffffffffffffffffffffffffffffffffffffffffffffffffffffffff0382111561121757611216611303565b5b828201905092915050565b600061122d82611234565b9050919050565b600073ffffffffffffffffffffffffffffffffffffffff82169050919050565b6000819050919050565b82818337600083830152505050565b60005b8381101561128b578082015181840152602081019050611270565b8381111561129a576000848401525b50505050565b600060028204905060018216806112b857607f821691505b602082108114156112cc576112cb611332565b5b50919050565b6112db82611390565b810181811067ffffffffffffffff821117156112fa576112f9611361565b5b80604052505050565b7f4e487b7100000000000000000000000000000000000000000000000000000000600052601160045260246000fd5b7f4e487b7100000000000000000000000000000000000000000000000000000000600052602260045260246000fd5b7f4e487b7100000000000000000000000000000000000000000000000000000000600052604160045260246000fd5b6000601f19601f8301169050919050565b7f4661696c656420746f2073656e64206d6f6e6579000000000000000000000000600082015250565b7f4d7573742077616974203330207365636f6e6473206265666f7265207761766960008201527f6e6720616761696e2e0000000000000000000000000000000000000000000000602082015250565b50565b7f436f6e747261637420686173206e6f206d6f6e65797300000000000000000000600082015250565b61144e81611222565b811461145957600080fd5b5056fea2646970667358221220fcfe68243bc1f2007008e29c249990c25a1c6a4ef9b7fc8fc3ce25e2b1a5ad4764736f6c63430008040033",
  "linkReferences": {},
  "deployedLinkReferences": {}
}