{
  "_format": "hh-sol-artifact-1",
  "contractName": "WavePortal",
  "sourceName": "contracts/WavePortal.sol",
  "abi": [
    {
      "inputs": [],
      "stateMutability": "nonpayable",
      "type": "constructor"
    },
    {
      "inputs": [],
      "name": "getAllWavers",
      "outputs": [
        {
          "internalType": "uint256[]",
          "name": "",
          "type": "uint256[]"
        }
      ],
      "stateMutability": "view",
      "type": "function"
    },
    {
      "inputs": [],
      "name": "getTotalWaves",
      "outputs": [
        {
          "internalType": "uint256",
          "name": "",
          "type": "uint256"
        }
      ],
      "stateMutability": "view",
      "type": "function"
    },
    {
      "inputs": [],
      "name": "wave",
      "outputs": [],
      "stateMutability": "nonpayable",
      "type": "function"
    }
  ],
  "bytecode": "0x608060405234801561001057600080fd5b506100596040518060400160405280601581526020017f4920616d206120736d61727420636f6e7472616374000000000000000000000081525061005e60201b6101c81760201c565b6101e1565b6100fa81604051602401610072919061015f565b6040516020818303038152906040527f41304fac000000000000000000000000000000000000000000000000000000007bffffffffffffffffffffffffffffffffffffffffffffffffffffffff19166020820180517bffffffffffffffffffffffffffffffffffffffffffffffffffffffff83818316178352505050506100fd60201b60201c565b50565b60008151905060006a636f6e736f6c652e6c6f679050602083016000808483855afa5050505050565b600061013182610181565b61013b818561018c565b935061014b81856020860161019d565b610154816101d0565b840191505092915050565b600060208201905081810360008301526101798184610126565b905092915050565b600081519050919050565b600082825260208201905092915050565b60005b838110156101bb5780820151818401526020810190506101a0565b838111156101ca576000848401525b50505050565b6000601f19601f8301169050919050565b6106ed806101f06000396000f3fe608060405234801561001057600080fd5b50600436106100415760003560e01c8063117c5564146100465780636fe15b44146100645780639a2cdc081461006e575b600080fd5b61004e61008c565b60405161005b919061049e565b60405180910390f35b61006c6100e4565b005b61007661017d565b6040516100839190610542565b60405180910390f35b606060018054806020026020016040519081016040528092919081815260200182805480156100da57602002820191906000526020600020905b8154815260200190600101908083116100c6575b5050505050905090565b60016000808282546100f691906105b2565b9250508190555060013373ffffffffffffffffffffffffffffffffffffffff16908060018154018082558091505060019003906000526020600020016000909190919091505561017b6040518060400160405280600c81526020017f257320697320776176656421000000000000000000000000000000000000000081525033610261565b565b60006101c06040518060400160405280601681526020017f5765206861766520256420746f74616c207761766573000000000000000000008152506000546102fd565b600054905090565b61025e816040516024016101dc91906104c0565b6040516020818303038152906040527f41304fac000000000000000000000000000000000000000000000000000000007bffffffffffffffffffffffffffffffffffffffffffffffffffffffff19166020820180517bffffffffffffffffffffffffffffffffffffffffffffffffffffffff8381831617835250505050610399565b50565b6102f982826040516024016102779291906104e2565b6040516020818303038152906040527f319af333000000000000000000000000000000000000000000000000000000007bffffffffffffffffffffffffffffffffffffffffffffffffffffffff19166020820180517bffffffffffffffffffffffffffffffffffffffffffffffffffffffff8381831617835250505050610399565b5050565b6103958282604051602401610313929190610512565b6040516020818303038152906040527f9710a9d0000000000000000000000000000000000000000000000000000000007bffffffffffffffffffffffffffffffffffffffffffffffffffffffff19166020820180517bffffffffffffffffffffffffffffffffffffffffffffffffffffffff8381831617835250505050610399565b5050565b60008151905060006a636f6e736f6c652e6c6f679050602083016000808483855afa5050505050565b60006103ce8383610480565b60208301905092915050565b6103e381610608565b82525050565b60006103f48261056d565b6103fe8185610590565b93506104098361055d565b8060005b8381101561043a57815161042188826103c2565b975061042c83610583565b92505060018101905061040d565b5085935050505092915050565b600061045282610578565b61045c81856105a1565b935061046c818560208601610644565b610475816106a6565b840191505092915050565b6104898161063a565b82525050565b6104988161063a565b82525050565b600060208201905081810360008301526104b881846103e9565b905092915050565b600060208201905081810360008301526104da8184610447565b905092915050565b600060408201905081810360008301526104fc8185610447565b905061050b60208301846103da565b9392505050565b6000604082019050818103600083015261052c8185610447565b905061053b602083018461048f565b9392505050565b6000602082019050610557600083018461048f565b92915050565b6000819050602082019050919050565b600081519050919050565b600081519050919050565b6000602082019050919050565b600082825260208201905092915050565b600082825260208201905092915050565b60006105bd8261063a565b91506105c88361063a565b9250827fffffffffffffffffffffffffffffffffffffffffffffffffffffffffffffffff038211156105fd576105fc610677565b5b828201905092915050565b60006106138261061a565b9050919050565b600073ffffffffffffffffffffffffffffffffffffffff82169050919050565b6000819050919050565b60005b83811015610662578082015181840152602081019050610647565b83811115610671576000848401525b50505050565b7f4e487b7100000000000000000000000000000000000000000000000000000000600052601160045260246000fd5b6000601f19601f830116905091905056fea2646970667358221220d58577894dfcdd92a8823d60d2f22f75b69084ae9c70300b8cb900b2d4b7042464736f6c63430008040033",
  "linkReferences": {},
  "deployedLinkReferences": {}
}