{
  "_format": "hh-sol-artifact-1",
  "contractName": "WavePortal",
  "sourceName": "contracts/WavePortal.sol",
  "abi": [
    {
      "inputs": [],
      "stateMutability": "nonpayable",
      "type": "constructor"
    },
    {
      "anonymous": false,
      "inputs": [
        {
          "indexed": true,
          "internalType": "address",
          "name": "from",
          "type": "address"
        },
        {
          "indexed": false,
          "internalType": "uint256",
          "name": "timestamp",
          "type": "uint256"
        },
        {
          "indexed": false,
          "internalType": "string",
          "name": "message",
          "type": "string"
        }
      ],
      "name": "NewWave",
      "type": "event"
    },
    {
      "inputs": [],
      "name": "getAllWavers",
      "outputs": [
        {
          "internalType": "uint256[]",
          "name": "",
          "type": "uint256[]"
        }
      ],
      "stateMutability": "view",
      "type": "function"
    },
    {
      "inputs": [],
      "name": "getAllWaves",
      "outputs": [
        {
          "components": [
            {
              "internalType": "address",
              "name": "waver",
              "type": "address"
            },
            {
              "internalType": "string",
              "name": "message",
              "type": "string"
            },
            {
              "internalType": "uint256",
              "name": "timestamp",
              "type": "uint256"
            }
          ],
          "internalType": "struct WavePortal.Wave[]",
          "name": "",
          "type": "tuple[]"
        }
      ],
      "stateMutability": "view",
      "type": "function"
    },
    {
      "inputs": [],
      "name": "getTotalWaves",
      "outputs": [
        {
          "internalType": "uint256",
          "name": "",
          "type": "uint256"
        }
      ],
      "stateMutability": "view",
      "type": "function"
    },
    {
      "inputs": [
        {
          "internalType": "string",
          "name": "_message",
          "type": "string"
        }
      ],
      "name": "wave",
      "outputs": [],
      "stateMutability": "nonpayable",
      "type": "function"
    }
  ],
  "bytecode": "0x60806040523480156200001157600080fd5b506200005d6040518060400160405280601581526020017f4920616d206120736d61727420636f6e747261637400000000000000000000008152506200006360201b620004721760201c565b620001f7565b62000103816040516024016200007a919062000170565b6040516020818303038152906040527f41304fac000000000000000000000000000000000000000000000000000000007bffffffffffffffffffffffffffffffffffffffffffffffffffffffff19166020820180517bffffffffffffffffffffffffffffffffffffffffffffffffffffffff83818316178352505050506200010660201b60201c565b50565b60008151905060006a636f6e736f6c652e6c6f679050602083016000808483855afa5050505050565b60006200013c8262000194565b6200014881856200019f565b93506200015a818560208601620001b0565b6200016581620001e6565b840191505092915050565b600060208201905081810360008301526200018c81846200012f565b905092915050565b600081519050919050565b600082825260208201905092915050565b60005b83811015620001d0578082015181840152602081019050620001b3565b83811115620001e0576000848401525b50505050565b6000601f19601f8301169050919050565b610dde80620002076000396000f3fe608060405234801561001057600080fd5b506004361061004c5760003560e01c8063117c556414610051578063449d46c01461006f5780639a2cdc081461008b578063bd43a908146100a9575b600080fd5b6100596100c7565b60405161006691906109da565b60405180910390f35b6100896004803603810190610084919061077a565b61011f565b005b6100936102d6565b6040516100a09190610a93565b60405180910390f35b6100b1610321565b6040516100be91906109b8565b60405180910390f35b6060600180548060200260200160405190810160405280929190818152602001828054801561011557602002820191906000526020600020905b815481526020019060010190808311610101575b5050505050905090565b60016000808282546101319190610bd3565b9250508190555060013373ffffffffffffffffffffffffffffffffffffffff1690806001815401808255809150506001900390600052602060002001600090919091909150556101b76040518060400160405280601681526020017f257320776176656420772f206d65737361676520257300000000000000000000815250338361050b565b600260405180606001604052803373ffffffffffffffffffffffffffffffffffffffff16815260200183815260200142815250908060018154018082558091505060019003906000526020600020906003020160009091909190915060008201518160000160006101000a81548173ffffffffffffffffffffffffffffffffffffffff021916908373ffffffffffffffffffffffffffffffffffffffff160217905550602082015181600101908051906020019061027692919061066f565b506040820151816002015550503373ffffffffffffffffffffffffffffffffffffffff167f5f7e16dc676677766a70e9c5628aa6c54ddb8b6e5188e2ae1e1f17f1ffbea71642836040516102cb929190610aae565b60405180910390a250565b60006103196040518060400160405280601681526020017f5765206861766520256420746f74616c207761766573000000000000000000008152506000546105aa565b600054905090565b60606002805480602002602001604051908101604052809291908181526020016000905b8282101561046957838290600052602060002090600302016040518060600160405290816000820160009054906101000a900473ffffffffffffffffffffffffffffffffffffffff1673ffffffffffffffffffffffffffffffffffffffff1673ffffffffffffffffffffffffffffffffffffffff1681526020016001820180546103ce90610ca7565b80601f01602080910402602001604051908101604052809291908181526020018280546103fa90610ca7565b80156104475780601f1061041c57610100808354040283529160200191610447565b820191906000526020600020905b81548152906001019060200180831161042a57829003601f168201915b5050505050815260200160028201548152505081526020019060010190610345565b50505050905090565b6105088160405160240161048691906109fc565b6040516020818303038152906040527f41304fac000000000000000000000000000000000000000000000000000000007bffffffffffffffffffffffffffffffffffffffffffffffffffffffff19166020820180517bffffffffffffffffffffffffffffffffffffffffffffffffffffffff8381831617835250505050610646565b50565b6105a583838360405160240161052393929190610a1e565b6040516020818303038152906040527fe0e9ad4f000000000000000000000000000000000000000000000000000000007bffffffffffffffffffffffffffffffffffffffffffffffffffffffff19166020820180517bffffffffffffffffffffffffffffffffffffffffffffffffffffffff8381831617835250505050610646565b505050565b61064282826040516024016105c0929190610a63565b6040516020818303038152906040527f9710a9d0000000000000000000000000000000000000000000000000000000007bffffffffffffffffffffffffffffffffffffffffffffffffffffffff19166020820180517bffffffffffffffffffffffffffffffffffffffffffffffffffffffff8381831617835250505050610646565b5050565b60008151905060006a636f6e736f6c652e6c6f679050602083016000808483855afa5050505050565b82805461067b90610ca7565b90600052602060002090601f01602090048101928261069d57600085556106e4565b82601f106106b657805160ff19168380011785556106e4565b828001600101855582156106e4579182015b828111156106e35782518255916020019190600101906106c8565b5b5090506106f191906106f5565b5090565b5b8082111561070e5760008160009055506001016106f6565b5090565b600061072561072084610b03565b610ade565b90508281526020810184848401111561073d57600080fd5b610748848285610c65565b509392505050565b600082601f83011261076157600080fd5b8135610771848260208601610712565b91505092915050565b60006020828403121561078c57600080fd5b600082013567ffffffffffffffff8111156107a657600080fd5b6107b284828501610750565b91505092915050565b60006107c7838361094a565b905092915050565b60006107db838361099a565b60208301905092915050565b6107f081610c29565b82525050565b6107ff81610c29565b82525050565b600061081082610b54565b61081a8185610b8f565b93508360208202850161082c85610b34565b8060005b85811015610868578484038952815161084985826107bb565b945061085483610b75565b925060208a01995050600181019050610830565b50829750879550505050505092915050565b600061088582610b5f565b61088f8185610ba0565b935061089a83610b44565b8060005b838110156108cb5781516108b288826107cf565b97506108bd83610b82565b92505060018101905061089e565b5085935050505092915050565b60006108e382610b6a565b6108ed8185610bb1565b93506108fd818560208601610c74565b61090681610d97565b840191505092915050565b600061091c82610b6a565b6109268185610bc2565b9350610936818560208601610c74565b61093f81610d97565b840191505092915050565b600060608301600083015161096260008601826107e7565b506020830151848203602086015261097a82826108d8565b915050604083015161098f604086018261099a565b508091505092915050565b6109a381610c5b565b82525050565b6109b281610c5b565b82525050565b600060208201905081810360008301526109d28184610805565b905092915050565b600060208201905081810360008301526109f4818461087a565b905092915050565b60006020820190508181036000830152610a168184610911565b905092915050565b60006060820190508181036000830152610a388186610911565b9050610a4760208301856107f6565b8181036040830152610a598184610911565b9050949350505050565b60006040820190508181036000830152610a7d8185610911565b9050610a8c60208301846109a9565b9392505050565b6000602082019050610aa860008301846109a9565b92915050565b6000604082019050610ac360008301856109a9565b8181036020830152610ad58184610911565b90509392505050565b6000610ae8610af9565b9050610af48282610cd9565b919050565b6000604051905090565b600067ffffffffffffffff821115610b1e57610b1d610d68565b5b610b2782610d97565b9050602081019050919050565b6000819050602082019050919050565b6000819050602082019050919050565b600081519050919050565b600081519050919050565b600081519050919050565b6000602082019050919050565b6000602082019050919050565b600082825260208201905092915050565b600082825260208201905092915050565b600082825260208201905092915050565b600082825260208201905092915050565b6000610bde82610c5b565b9150610be983610c5b565b9250827fffffffffffffffffffffffffffffffffffffffffffffffffffffffffffffffff03821115610c1e57610c1d610d0a565b5b828201905092915050565b6000610c3482610c3b565b9050919050565b600073ffffffffffffffffffffffffffffffffffffffff82169050919050565b6000819050919050565b82818337600083830152505050565b60005b83811015610c92578082015181840152602081019050610c77565b83811115610ca1576000848401525b50505050565b60006002820490506001821680610cbf57607f821691505b60208210811415610cd357610cd2610d39565b5b50919050565b610ce282610d97565b810181811067ffffffffffffffff82111715610d0157610d00610d68565b5b80604052505050565b7f4e487b7100000000000000000000000000000000000000000000000000000000600052601160045260246000fd5b7f4e487b7100000000000000000000000000000000000000000000000000000000600052602260045260246000fd5b7f4e487b7100000000000000000000000000000000000000000000000000000000600052604160045260246000fd5b6000601f19601f830116905091905056fea2646970667358221220685fd92c6784d85ca187af9b25a4f8c200f76eb289b5ad992fd4628aab75339864736f6c63430008040033",
  "linkReferences": {},
  "deployedLinkReferences": {}
}